:100000000C9456000C946B000C946B000C946B00D9
:100010000C946B000C946B000C946B000C946B00B4
:100020000C946B000C946B000C946B000C946B00A4
:100030000C946B000C946B000C946B000C946B0094
:100040000C946B000C946B000C946B000C946B0084
:100050000C946B000C946B000C946B000C946B0074
:100060000C946B000C946B000C946B000C946B0064
:100070000C946B000C946B000C946B000C946B0054
:100080000C946B000C946B000C946B000C946B0044
:100090000C946B000C946B000C946B000C946B0034
:1000A0000C946B000C946B000C946B0011241FBE1D
:1000B000CFEFDAE0DEBFCDBF11E0A0E0B1E0ECEEC3
:1000C000F1E002C005900D92A436B107D9F70E9465
:1000D000B0000C94F4000C94000088E48AB91092EB
:1000E000CD0083E38093CC001092C80088E1809318
:1000F000C90086E08093CA0008959091C80095FFDA
:10010000FCCF8093CE000895CF93DF93EC018991CB
:10011000882319F00E947D00FACFDF91CF910895D6
:100120008091C80087FFFCCF8091CE0008950F9387
:100130001F93CF938C01C0E00E949000F801EC0F58
:10014000F11D8083CF5F8A3041F4F801EC0FF11D7F
:100150001082CF911F910F9108958D3069F7F5CFDF
:10016000CF93DF93CDB7DEB7C456D1090FB6F8945D
:10017000DEBF0FBECDBF80E88093610081E0809339
:10018000610078948AB18FEF8AB997B187B998B135
:1001900088B90E946D008BE0E0E0F1E0DE0111968D
:1001A00001900D928A95E1F7FE013C9689E5DF0109
:1001B0001D928A95E9F75E9ACE0101960E9484000D
:1001C000BFEF21EE84E0B15020408040E1F700C055
:1001D00000005E989FEFA1EEB4E09150A040B040C7
:0C01E000E1F700C00000E7CFF894FFCF6B
:1001EC005465656E7379206F757400000000000013
:1001FC0000000000000000000000000000000000F3
:10020C0000000000000000000000000000000000E2
:10021C0000000000000000000000000000000000D2
:10022C0000000000000000000000000000000000C2
:10023C0000000000000000000000000000000000B2
:04024C0000000000AE
:00000001FF
